:02000000922943
:10000800FF00030E8301A7000A08A6008A017008F2
:10001800A2007C08A1007D08A0008B1CE4288801B0
:10002800080887000514851405158515861F1D28E1
:100038001A288B10861B5028061F5028861E502809
:10004800861206160330A50000302502031C472837
:100058008511851025088800250887000B30FB00CE
:100068002630FC005D30FD00FD0B3828FC0B3828DD
:10007800FB0B3828000000002508013A031D45281D
:100088004728A50328280613061506128615851580
:100098008514861F50284D28861B8328061D832813
:1000A800861D8328061186140330A500003025021A
:1000B800031C7928851085112508880025088700E4
:1000C8000B30FB002630FC005D30FD00FD0B6A287C
:1000D800FC0B6A28FB0B6A28000000002508013A7F
:1000E800031D77287928A5035A28861186168514B2
:1000F8008515861186100617861F83288028861B7B
:10010800B328861CB328861DB3280330A500003009
:100118002502031CAA2885108511250888002508B2
:1001280087000B30FB002630FC005D30FD00FD0B26
:100138009B28FC0B9B28FB0B9B2800000000250834
:10014800013A031DA828AA28A5038B28861186161C
:100158008514851586100617861FB328B028861BB8
:10016800E328061FE328061EE3280330A500003015
:100178002502031CDA288511851025088800250822
:1001880087000B30FB002630FC005D30FD00FD0BC6
:10019800CB28FC0BCB28FB0BCB2800000000250844
:1001A800013A031DD828DA28A503BB28061506132B
:1001B8000612861585158514861FE328E0281E2853
:1001C8002208F0002108FC002008FD0026088A000B
:0A01D800270E8300FF0E7F0E0900C2
:0E01E2008312031324088A00230882000800F9
:1001F00083120313F8010830FC00700DF80D740829
:10020000F80203180529F8070310F00DFC0BFD2870
:020210000800E4
:080212008312031387010800A9
:08021A008312031388010800A0
:10022200F1208A110A128000840AA30A0319A40A7F
:08023200F003031D112908006F
:10023A0083120313AD012808003C031891292908E9
:10024A00003C031891290A30F4002808F000F8202D
:10025A007008AE000A30F4002808F000F820780888
:10026A00F0007008AA000A30F4002908F000F8200B
:10027A007008AB000A30F4002908F000F82078086A
:10028A00F0007008AC00051085142E0887000D30A8
:10029A00FC00FB30FD00FD0B5029FC0B502900002F
:1002AA000000051485102A0887000D30FC00FB3079
:1002BA00FD00FD0B5E29FC0B5E2900000000051104
:1002CA0085152B0888000D30FC00FB30FD00FD0B66
:1002DA006C29FC0B6C2900000000051585112C08FF
:1002EA0088000D30FC00FB30FD00FD0B7A29FC0B69
:1002FA007A2900000000AD0A2D08323A031D902920
:10030A002808003C03188A29A8032908003C031876
:0A031A008F29A903AD012029080076
:100324000730831603139F00870183128701831606
:100334008801831288018130831686008312860126
:10034400831685018312850109210D218B170B1654
:10035400831601138312851AB029AC290617861651
:100364000F30A8000C30A9001D2109210D2186128F
:10037400061706160330A8000330A9001D21092121
:100384000D2106130612061586151430A800173021
:10039400A9001D2109210D2106118614861503309B
:1003A400A8000330A9001D2109210D218610861102
:0403B400AC29DB296C
:02400E004A2F37
:00000001FF
